:02000000FF2AD5
:10000800FF00030E8301CC000A08CB008A017008A8
:10001800A4007108A3007208A2007308A100740864
:10002800A0000C1D3E283D08031927284008F000B1
:10003800F101700896003F089500BD01093097004E
:100048008F018E013C283F08403CF3004008031C08
:10005800013E9C3CF4007408F000F1017008960021
:1000680073089500083097000130BD008F018E019C
:10007800FB308C052408F0002308F1002208F20068
:100088002108F3002008F4004B088A004C0E830076
:06009800FF0E7F0E0900BF
:10009E0083120313BB01BC01BB01BC0153083C021C
:1000AE00031D5B2852083B0203188D28B701B801C7
:1000BE00B901BA0100303A02031D6F28003039022F
:1000CE00031D6F2807303802031D6F28D03037020A
:1000DE00031889283708F0003808F1003908F200B3
:1000EE003A08F300F00A0319F10A0319F20A031988
:1000FE00F30A7008B7007108B8007208B9007308E7
:0E010E00BA006128BB0A0319BC0A5528080074
:10011C0083120313510888008716BF308705871791
:10012C00F430D2000130D3004F207F308705080017
:10013C008312031351088800DF308705BF30870511
:10014C008717F430D2000130D3004F207F30870561
:02015C00080099
:0E015E008312031332088A0031088200080061
:10016C00383083120313D1009E200630D1009E201C
:0E017C000C30D1009E200130D1009E200800E2
:10018A00831203137008F100F0010830FC007108B3
:10019A00F40C0318D428FC0BCD28F1010034031009
:1001AA00D928F40C0318F107F10CF00CFC0BD62833
:0201BA0008003B
:1001BC00F8308312031381008F018E010130BD00D2
:1001CC000830970001309000F0308B0083160C152E
:1001DC00073083129600D03095004C30BF000430AD
:1001EC00C0008830D2001330D3004F201030BF0035
:0601FC000E30C0000800F7
:1002020083120313F801F9011030FC00710DF80D8F
:10021200F90D7408F8027508031C750FF90203182A
:1002220019297408F80775080318750FF9070310E0
:0A023200F00DF10DFC0B0729080088
:10023C0083120313D0014F085002031837295008BA
:10024C004D07F0004E080318013EF1007008B10094
:10025C007108B200AF208A110A12D1008E20D00A88
:04026C00212908003C
:10027000B6208030D1009E20B930CD000330CE00B2
:100280000830CF001E210330D2000030D3004F20B1
:080290000028F001F101080053
:10029800831203133308313A031D74293408323AA0
:1002A800031D74293508333A031D74293608343A76
:1002B800031D7429B6208030D1009E208230CD00E5
:1002C8000330CE000E30CF001E2104308500DE2022
:1002D8008830D2001330D3004F20850100283A2AF5
:1002E800C40A0319C50A03304405F1004508F200A1
:1002F8000030F20500307206031D842900307106B3
:10030800031DFE29B6208030D1009E209130CD00FB
:100318000330CE000A30CF001E21C201C3010330D2
:100328004302031D9929E83042020318DB290B1DFB
:10033800B229B6208030D1009E20C230CD000330D3
:10034800CE000830CF001E21033085008830D2004F
:100358001330D3004F2085010B110028C601C701B7
:1003680003304702031DBA29E83046020318D7298B
:100378000B1DD329B6208030D1009E20B030CD008F
:100388000330CE000830CF001E21033085008830AE
:10039800D2001330D3004F2085010B110028C60A64
:1003A8000319C70AB429C20A0319C30A9329B62034
:1003B8008030D1009E209C30CD000330CE00093023
:1003C800CF001E21C201C30100304302031DEE29E4
:1003D8000A3042020318FC29023085008830D20016
:1003E8001330D3004F208501C20A0319C30AE82934
:1003F80000283A2A0330F4000030F5004408F000E1
:100408004508F10001217808F0007908F100003072
:100418007106031D112A0030700603193A2AB62006
:100428008030D1009E20A630CD000330CE000930A8
:10043800CF001E21C201C30100304302031D262A3A
:100448000A3042020318342A023085008830D2006C
:100458001330D3004F208501C20A0319C30A202A8A
:0E046800D030D2000730D3004F20002808000B
:10047600831203138601861C452A061D452A861DFE
:10048600452A3E2A861C4C2A061D4C2A861D4C2AC5
:10049600B62A06128617861B522A0613532A0617F1
:1004A600061B572A8612582A8616861C5F2A061DA0
:1004B6005F2A861D5F2A642AD201D3014F20C1011B
:1004C600B62A86128617861B6A2A06136B2A061711
:1004D600061B6F2A0612702A0616861C772A061D28
:1004E600772A861D772A7F2A6430D2000030D3000F
:1004F6004F200130C100B62A06138617861B852AAF
:100506000612862A0616061A8A2A86128B2A861644
:10051600861C922A061D922A861D922A9A2A6430E1
:10052600D2000030D3004F200230C100B62A861315
:100536000617061BA02A8612A12A8616861AA52A3F
:100546000612A62A0616861CAD2A061DAD2A861D8B
:10055600AD2AB52A6430D2000030D3004F200330D4
:10056600C100B62A452A8618C32A061DC32A861D37
:10057600C32A6430D2000030D3004F20BE01DE2AE9
:10058600861CD12A0619D12A861DD12A6430D200AA
:100596000030D3004F200130BE00DE2A861CDE2A42
:1005A600061DDE2A8619DE2A6430D2000030D3000A
:1005B6004F200230BE00861CE52A061DE52A861D50
:1005C600E52AE62ADE2A0330F0004108F400C520B9
:1005D6002530F0073E08700784000008F000080088
:1005E600AF208A110A128000840AB10A0319B20ADE
:0805F600F003031DF32A0800C5
:1005FE00313083120313A5003230A6003330A7002A
:10060E003430A8003530A9003630AA003730AB00A0
:10061E003830AC003930AD002A30AE003030AF008B
:10062E002330B0000F3083168600D0308B00880147
:10063E0020308500870183128801063083169F00C3
:10064E007F30810583128501B6208030D1009E2037
:10065E00CB30CD000330CE000530CF001E21D03080
:10066E00D2000730D3004F20B6208030D1009E201C
:10067E007330CD000330CE000E30CF001E21C030BF
:10068E00D1009E20C801C90100304902031D512B23
:10069E00053048020318712B3B227008CA007008FF
:1006AE00233A031D5C2B4C216D2B4A082A3A031D5D
:1006BE00622B38216D2B4808333E84004A08800097
:1006CE004808333E84000008D1008E20C80A031962
:0806DE00C90A4B2B492B722BBA
:1006E60045344E3454344534523420345034413435
:0E06F6005334533457344F34523444340034A8
:1007040044344F344F345234203449345334203435
:0E0714004F34503445344E34453444340034B0
:10072200703472346F3463346534733473346934BF
:060732006E346734003450
:1007380049344E3443344F345234523445344334BC
:0407480054340034F1
:10074C0049344E3443344F345234523445344334A8
:04075C0054340034DD
:1007600041344C34413452344D3420344F344E34BF
:02077000003453
:10077200523445345334453454342E342E342E34CA
:02078200003441
:1007840041344C34413452344D3420344F344E349B
:0207940000342F
:0C079600483445344C344C344F340034AB
:02400E004A2F37
:00000001FF
